:02000004008179
:100000000000012085B08100ADB08100F56C810059
:10001000B1B08100B3B08100B5B081000000000034
:10002000000000000000000000000000B7B08100E8
:10003000B9B0810000000000BBB081004D1181000B
:100040006F978100BFB081006150810055508100E1
:10005000A54A8100BFB08100C540810005518100E3
:10006000BFB08100D119810025498100BFB0810056
:10007000BFB08100BFB08100BFB08100BFB08100C0
:10008000BFB08100FDAB8100BFB08100BFB0810077
:1000900099AC8100BFB08100196F8100BFB08100B1
:1000A000BFB08100BFB08100394981004D49810056
:1000B000BFB08100BFB08100000000000000000060
:1000C000BFB08100BFB08100BFB081005944810042
:1000D000813C8100454F8100BFB08100E9A68100CD
:1000E000BFB08100BFB08100BFB081000000000040
:1000F00000000000BFB081000000000069448100E2
:1001000000000000000000000000000000000000EF
:1001100000000000000000000000000000000000DF
:1001200000000000000000000000000000000000CF
:1001300000000000000000000000000000000000BF
:1001400000000000000000000000000000000000AF
:10015000000000000000000000000000000000009F
:10016000000000000000000000000000000000008F
:10017000000000000000000000000000000000007F
:10018000000000000000000000000000000000006F
:10019000000000000000000000000000000000005F
:1001A000000000000000000000000000000000004F
:1001B000000000000000000000000000000000003F
:1001C000000000000000000000000000000000002F
:1001D000000000000000000000000000000000001F
:1001E000000000000000000000000000000000000F
:1001F00000000000000000000000000000000000FF
:1002000010B5054C237833B9044B13B10448AFF350
:1002100000800123237010BD28350020000000005D
:100220002025820008B5034B1BB103490348AFF3F7
:10023000008008BD000000002C3500202025820031
:10024000A3F5803A704700BF174B002B08BF134B34
:100250009D46FFF7F5FF00218B460F461348144AD1
:10026000121A0DF0C9FE0E4B002B00D098470D4B13
:10027000002B00D098470020002104000D000D48FD
:10028000002802D00C48AFF300800DF009FE2000DA
:1002900029000CF0ADFB0DF013FB00BF00000800BF
:1002A00000000000000000000000012028350020B0
:1002B00054840020000000000000000030B40A4A0E
:1002C0000A4D0346002012F8014B9C4207D155F815
:1002D000204024B1064B595C234630BC18470130FE
:1002E0003C28F0D130BC7047EC3000208435002031
:1002F0002C300020052801BF024A13680133136027
:10030000704700BF043900200020704738B504460C
:1003100038B1044D45F001054FF47A40A847013C3F
:10032000FAD138BD700E820020B1034B800143F03A
:1003300001031847704700BF700E82000A4B0B4A3A
:10034000C3F8F4200A4B1A680A4BC3F8F82FBFF31E
:100350004F8F0949094BCA6802F4E0621343CB602E
:10036000BFF34F8F00BFFDE700FF0320434F494E0F
:100370000030002000F0032000ED00E00400FA054A
:1003800007EE900ADFED0D6AF8EE677A82B087EE2D
:10039000A67AF0EE087A37EE677ADFED096AC7EEE3
:1003A000267A9FED087A67EE877AFCEEE77ACDED44
:1003B000017A9DF8040002B0704700BF00007A4443
:1003C0009899993F0000C84208B500F091FDBDE83A
:1003D0000840012107F00ABD083808B5062818D8DA
:1003E000DFE800F0080F131717170400BDE80840F6
:1003F00005F0ACB809F072FE58B9BDE8084005F048
:10040000A3B8BDE8084005F0B3B8BDE8084005F062
:100410009FB808BD13B50B4B0B4A186800909B881A
:100420000A48ADF80430694603F0C6FB044630B90B
:100430000648012103F014FC044803F005FC2046A3
:1004400002B010BD5C0E8200F5028100780E8200C1
:10045000012838B50A4604460CD80A4D2B5C63B90E
:1004600009480A4900EBC40004F0B2F938B9012385
:100470002B5538BD6FF01400FBE70020F9E76FF053
:100480001300F6E780350020800E82003030002017
:1004900001281FB5034617D80D4A52F8333002EB36
:1004A000C000D3F81025039001230901D2B221FA2C
:1004B00002F20093002104F020FA039804F0F6F908
:1004C000002005B05DF804FB6FF01400F9E700BFF1
:1004D000800E820070B5114B1E5C731EDBB2FD2BCB
:1004E00004460D4617D81AB90D4B03221A7003E0C3
:1004F000012A11D0022A0FD00A4A0949304603F0D6
:1005000013FD0121304603F08FFD074B43F82450C3
:10051000064B01221A5570BD014BE7E7EC30002075
:1005200004300020BD0281008435002044350020C5
:1005300003681F2B83BF03F01F03036001484FF0C4
:10054000A0407047000300500278034B12B901220B
:100550001A7070470222FBE7683000200278034BD4
:1005600012B901225A7070470222FBE7683000205E
:100570000278034B12B901229A7070470222FBE7FE
:10058000683000202DE9F04F85B000AF002402282C
:10059000B7F838B097F83C807B6005463C817CD842
:1005A000424B1B5C002B7BD0414B5E5C731EDBB26D
:1005B000FD2B78D807F10C00FE60FFF7B9FFFB6850
:1005C00003F5E073032140F8231007F10C00FE60EF
:1005D000FFF7AEFFF968012303FA01F1B8F1080F44
:1005E000C0F80C154FD13A72DFF8CC80314808EBD7
:1005F00005144FEA051A07F108024FF0000900EB55
:10060000C50548F80A20C4E902994A4663602146B4
:10061000284604F02BF8024618BB7B68E060C4E96A
:1006200001B048F80A302146284604F01FF8102887
:10063000024616D10BF107026B46D2083B60A3EBD2
:10064000C2039D4679685A4668460DF0C7FC48F8D3
:100650000AD04A462146284604F008F83B6802467C
:100660009D4607F10C00FE60FFF762FFF968012369
:100670008B40C0F80835101E18BF012040421437C7
:10068000BD46BDE8F08FB8F1100F01BF130A3B72F1
:100690007A72022318BF2346A6E76FF00B00EEE73D
:1006A0006FF00D00EBE74FF0FF30E8E73B3900203B
:1006B000EC300020CC0E8200083900200228F8B56A
:1006C00004461FD8104E335CE3B1104D05EBC00556
:1006D000284604F0A7FA0E4A0E4952F824200023B7
:1006E00001EB04112846335504F0E4F90746284687
:1006F00004F06CFA27B1BDE8F84007480EF0E0B905
:1007000001233355F8BD00BF38390020B40E8200F4
:10071000A80E820038300020900E820070B5054689
:1007200088B00020022D9DF83440ADF8040048D870
:10073000274E765D002E47D0082C2FD18DF804204F
:10074000012202200492BDF830208DF80C000592A1
:10075000204E21488DF80D1001AACDE90623002373
:100760007355122203A900EBC50004F0AFFA04464A
:1007700001F0CCF8029001F0C9F8029BC01AB0F564
:100780007A7F01D2735DA3B1735D012B14D028462B
:10079000FFF794FF6FF0010008B070BD102C01BF8F
:1007A000100A8DF805208DF80400022218BF0246B9
:1007B000C7E701F0B1F8DEE7201E18BF0120404274
:1007C000EAE76FF00F00E7E76FF01000E4E700BF23
:1007D0003839002068300020B40E82002DE9F0473F
:1007E00088B000AF9A46B7F8408008F10903054683
:1007F000DB086846A0EBC30300249D46022D894612
:10080000BC8097F844106E4657D82F4B5B5D002B89
:1008100056D0082942D13A7101242246391D30466A
:100820000DF0DCFB4246514630190DF0D7FB142287
:10083000002107F10C000DF0DFFB4444012D87F887
:100840000D903C61BE6105D1204C204604F034FA85
:100850000028FAD11E4E1F4800237355012207F1CC
:100860000C0100EBC50004F031FA044601F04EF82B
:10087000B86001F04BF8BB68C01AB0F57A7F01D2BE
:10088000735D93B1735D012B12D02846FFF716FFFD
:100890006FF001002037BD46BDE8F087102901BF89
:1008A000130A3B717A710224B7E701F035F8E0E7EB
:1008B000201E18BF01204042ECE76FF00F00E9E76F
:1008C0006FF01000E6E700BF38390020BC0E820050
:1008D00068300020B40E82002DE9F74302284FF063
:1008E00000049DF82C80ADF8004005461F465FD8F7
:1008F000344B1B5C002B5ED0334B5E5C731EDBB253
:10090000FD2B5BD801A80196FFF712FE019B03F5B2
:10091000E073032140F8231001A80196FFF708FEB9
:10092000019B012101FA03F3B8F1080FC0F80C355F
:1009300032D18DF80020DFF89880244808EB0514A8
:100940004FEA0519002200EBC505C4E902226160E7
:1009500048F809D02146284603F088FE024658B9D7
:10096000BDF8283048F80900C4E90107E3602146D2
:10097000284603F07BFE024601A80196FFF7D8FD4A
:10098000019901238B40C0F80835101E18BF0120C3
:10099000404203B0BDE8F083B8F1100F01BF130A65
:1009A0008DF800308DF80120022118BF2146C2E7E2
:1009B0006FF00B00EDE76FF00D00EAE74FF0FF304E
:1009C000E7E700BF3B390020EC300020CC0E82006E
:1009D00008390020014B185C704700BF38390020EF
:1009E00002282DE9F347064604D96FF00E0002B045
:1009F000BDE8F087471EFFB2012FDFF860818CBF92
:100A00000023032318F80330002BEED1DFF85091B8
:100A100019F80030002B40F09A804E4C050104EB91
:100A20000010302902737BD01CD8182910D8052952
:100A300014D90639122911D8DFE801F079107510A0
:100A40007510751010107510101075101010100022
:100A50001E294FF0005321D028291FD063194FF0D1
:100A600000520CE078290ED010D8502958D008D860
:100A7000322955D03C29F1D163194FF080529A6048
:100A80000DE06429EAD14FF0006307E0C82903D0E4
:100A9000F02901D09629F5E74FF0806383602E4856
:100AA00004EB050A00231A46514600EBC60003F08A
:100AB000E3FC00283FD1635D0193012201A809F8FE
:100AC0000620FFF735FD019B03F5E07340F203318B
:100AD00040F823109AF80130019301A8FFF728FD90
:100AE000019B03F5E07340F20F3140F823109AF8B0
:100AF0000230019301A8FFF71BFD019B03F5E07392
:100B000097424FF4417140F823108CBF0023032318
:100B100018F8030000287FF468AF08F8032066E7A0
:100B20004FF08053BAE763194FF08042A7E763198B
:100B30004FF00042A3E70023012F8CBF1A46032287
:100B400009F8063008F802306FF002004FE76FF046
:100B50000C004CE76C300020CC0E82009C30002052
:100B60003B3900202DE9F04F85B002280446019161
:100B700004D96FF0110005B0BDE8F08F374E14BFF7
:100B800005460025735D002BF3D11AB1012A47D029
:100B9000022A4ED0DFF8D08018F8042002F0FF09B6
:100BA000002A58D1DFF8BCA00AEB041703A87A6822
:100BB0000392FFF7BDFC039A4FEA041B02F5E072B3
:100BC00040F20C7140F822105AF80B20039203A84F
:100BD000FFF7AEFC039ADFF894A002F5E0720AEB8F
:100BE000C40B40F822101E4A4B4652F824203946C6
:100BF000584603F05FFF38BB584603F0E7FF019A01
:100C00005AF83430EAB94FF0CC72BA60C3F82425F0
:100C1000705D012308F804300028AAD17355AAE7B3
:100C2000104A02EB00110301062048601021D15048
:100C3000B0E70C4A02EB001103011D2048601A21A5
:100C4000F5E74FF0C862E0E708F8049006F8059071
:100C50006FF002008FE76FF012008CE79C300020ED
:100C6000A80E82003830002038390020B40E8200EF
:100C70000022FFF777BF13B508240194BDF8104098
:100C80000094FFF7ABFD02B010BD13B5082401942A
:100C9000BDF810400094FFF741FD02B010BD13B540
:100CA00008240194BDF810400094FFF76BFC02B0DB
:100CB00010BD13B508240194BDF810400094FFF74F
:100CC0000BFE02B010BD0000BFF34F8F0549064B6D
:100CD000CA6802F4E0621343CB60BFF34F8F00BFDA
:100CE000FDE700BF00ED00E00400FA05B0F5A07FCD
:100CF00001BF024A1368013313607047B8470020F0
:100D0000174BDFF868C08022F0B5C3F88420154D7A
:100D1000154B00241E882A88B6B292B29642A7B21A
:100D20000CD919882A8889B292B2914213D20C4BFD
:100D30008022C3F8842138465A60F0BDB942F0D908
:100D40001A8892B21CF8022002551A88013292B217
:100D50001A800134DEE700221A802A80E7E700BF0C
:100D600000E100E0B4470020A43F0020A73F00209E
:100D70001F2886BF054A00F01F004FF0A042012344
:100D800003FA00F0C2F80C05704700BF00030050E2
:100D90001F2886BF054A00F01F004FF0A042012324
:100DA00003FA00F0C2F80805704700BF00030050C6
:100DB000012838B51B4B09D118701B4B1B68B3F5C4
:100DC000966F07D1194B01221A7002E000221A70A7
:100DD00020B138BDB3F5166FFBD1F3E7134B1B7889
:100DE000002BF6D0104B1B68B3F5966F13D1104B48
:100DF0004FF47022C3F8F82F0E4B0F4D0F4AC3F873
:100E0000F420642445F001054FF47A40A847013CE2
:100E1000FAD1FFF759FFB3F5166FEDD1044B084A2D
:100E2000E8E700BFB3470020D43B0020A63F0020E6
:100E300000F0032000FF0320200F8200434F494EA3
:100E400000380E000368D3F80E20224B70B51A60EC
:100E500003292DD8DFE801F00231212D1E4C1F4D52
:100E60001F4E238832781F489BB23146EA542388AC
:100E700040F60A029BB293429DBF238801339BB286
:100E800040F60B030122238005F0FCFA0028E8D08D
:100E9000154B1B6863B15B6817E00120FFF788FF03
:100EA0000F491048012205F0EDFA104B00221A708C
:100EB00070BD0020FFF77CFFF7E70C4B00221A7093
:100EC000094B1B68002BF3D09B68002BF0D0BDE8CA
:100ED00070401847D43B0020B4470020A73F0020B3
:100EE000B6470020300F8200E43B0020BC470020C2
:100EF000014B1878704700BF143F002010B5194B04
:100F0000185C431EDBB2FD2B144628D889B9002A91
:100F100014BF032301231F2886BF00F01F00124ABD
:100F20004FF0A04200F5E0709B0042F82030002016
:100F300017E00129FBD11F288BBF00F01F030346D8
:100F4000094A4FF0A04203F5E073032142F8231051
:100F500014B9FFF70DFFEAE7FFF71AFFE7E74FF0D5
:100F6000FF3010BDEC3000200003005030B5194BAD
:100F70001B5C581EC0B2FD281C4624D86AB929B390
:100F80001F2B1DD903F01F04134B04F5E07453F815
:100F9000243003F001030B7010E01F2B8ABF0E48B2
:100FA0004FF0A04003F01F05D0F8100598BF1D4674
:100FB000E84000F0010010700029E1D1002030BDB0
:100FC0004FF0A043E1E74FF0FF30F8E76FF0080083
:100FD000F5E700BFEC3000200003005007B52720E4
:100FE0000DF107020DF10601FFF7C0FF9DF8073074
:100FF000012B05D1054807F069FA03B05DF804FB41
:10100000002BFAD1014807F0E3FAF6E72831002077
:1010100037B5002411488DF802400D468DF8034085
:1010200007F08FF90DF103020DF102012720FFF700
:101030009DFF9DF80330012B0ED1AB78012B0BD80F
:1010400080238DF8043028238DF805308DF8064074
:101050000199024806F088FF03B030BD2831002016
:1010600007B500231A488DF803300DF1030107F08E
:10107000D1F9184B187020BB9DF803000CF06EF8E6
:1010800011A3D3E900230CF0D3F8134B00220CF08A
:10109000F9F9124B00220CF0CBF80CF0A1FB104B2D
:1010A00080B21880188880B2FFF76AF90D4B18706B
:1010B0000748037D13B901A9FFF7AAFF03B05DF844
:1010C00004FBFF221A70F3E7CDCCCCCCCCCC104083
:1010D00028310020D23B00200000594000408F40C2
:1010E000D03B0020143F002013B5FF230DF1010178
:1010F00015488DF8013007F0EDF80DF102010DF102
:1011000003022720FFF732FF9DF801100E4C012942
:101110000DD19DF8033053B9204607F003F90A2199
:10112000204607F0F1F82021204606F0F2FF237D4B
:101130003BB19DF80330012B03D1034801A9FFF710
:1011400067FF02B010BD00BF28310020024A1368BB
:1011500001331360704700BFF83B002038B50346E9
:101160005D1E012D084614460DD8124B1B7843B165
:10117000114D124801232B7005F062F92B78002BDA
:10118000FCD1204638BDDD1E042D08D80C4B4FF491
:10119000087000FB0530BDE8384002F0FEB8082BAF
:1011A000EFD1084B1B78002BEBD0BDE8384011463F
:1011B00006F0DABDB3470020BC470020300F8200A4
:1011C000C0470020E03B002038B5044613460846DF
:1011D00074B9124D12492A880C8892B2A4B2121B1B
:1011E0009A42F8DB99B2FFF78BFD0346184638BDEB
:1011F000E51E042D07D80B4B1C2000FB0530BDE875
:10120000384002F039B8092CF0D1074A1278002A88
:10121000ECD01946BDE8384006F0CCBDB4470020FC
:10122000A43F0020183F0020E03B00202DE9F041C2
:101230000D46204907460DF046FE30B9002D0CBF83
:10124000092408242046BDE8F081DFF87C80D8F826
:101250000030052B02DD4FF0FF34F3E7164A002380
:10126000D15CA9B90121D154DC1CE61E3946A5B9CF
:10127000124B1C2000FB063001F092FF0128EAD13E
:101280000F4B9D55D8F800300133C8F80030D9E72E
:101290000133052BE4D10024E7E70A4B4FF4087033
:1012A00000FB063002F0A8F80128D4D1044B985571
:1012B000E8E700BFE40E8200E83B0020183F002072
:1012C000ED3B0020C0470020F43B002010B50F4B41
:1012D000C41E1B5D9BB10E4B4FF4087000FB043025
:1012E00002F086F90B4B00221A550B4A136801389D
:1012F00003F1FF33136018BF4FF0FF3010BD074BF1
:101300001C2000FB043001F0A3FFEBE7ED3B0020C5
:10131000C0470020E83B0020F43B0020183F00209D
:101320004FF0FF3070474FF0FF3070474FF0FF3005
:10133000704770474FF0FF307047000030B50546EA
:1013400085B00120FFF746FB014628B100232B6042
:101350000024204605B030BD02220120FFF702FC28
:1013600004460028F5D102230093024603AB48212E
:101370000120FFF78AFC04B2002CEAD19DF80D3061
:101380009DF80C201B0943EA0210D20903461EBF38
:1013900080F47F6383F00F03581C0BF0DFFE044BD7
:1013A00000220BF045FF0CF03BFA2860D1E700BFAC
:1013B0000000B03F10B50C46FFF7C0FF00280CBF7F
:1013C00004230023237010BDC1F101010128CAB21A
:1013D00006D0022807D048B901211820FFF78EBD9A
:1013E00001461920FAE701211A20F7E76FF00700FC
:1013F00070470000F0B5431E85B09BB240F2067204
:101400000025934204460E468DF807508DF80A5089
:101410007DD9D0B90320FFF7ABFC2C20FFF7A8FC47
:101420008DF8084002993D4806F0F2FD05B2731EA2
:101430009BB240F2067293426CD9002E3ED102203C
:10144000FFF796FC284605B0F0BD80278DF80870A0
:101450000299324806F0DCFD0DF107012F4806F035
:1014600024FF9DF8070006F0DFFC40F6E4439C42B1
:1014700028BF1C46A4F54874A042E3D00320FFF720
:1014800077FC2C20FFF774FC8DF808500299234854
:1014900006F0BEFD6423B4FBF3F4A4008DF809400C
:1014A0008DF8087002991D4806F0B2FD05B20320C0
:1014B000FFF76EFC2C20FFF76BFCB8E740F6E44129
:1014C000B14228BF3146A1F5E1639AB2B2F57A7F05
:1014D00098BFA1F214514FF0640295BF2023B3FBD3
:1014E000F2F1B1FBF2F1602394BFC9B2C9B28DF839
:1014F0000D30490080238DF80E108DF80C300399C3
:10150000064806F065FD0220FFF742FC9AE76FF0FF
:10151000350597E76FF0360594E700BF28310020C6
:101520002DE9F041A64A8EB00B46804692E80300B2
:10153000A44A0992A44A0A9200220B92A34A126872
:101540000C92A34A04AF12788DF8342087E8030088
:1015500019461BB19F4B19604B680B9302F040F981
:10156000051E4FF0000018BF022502F0C5FA08B1B1
:1015700045F00405002002F04FF9002002F0D4F9F4
:1015800002F0C6F9002800F08A80002306AEADF80C
:101590000C3000F084FA0A223146602000F081FA13
:1015A000B8B1022203A9012000F07BFA88B19DF8AE
:1015B0002130FF2B0DD0BDF80C30013B9BB2B3F5B1
:1015C000FF7F06D8334603CB834A1B8810605160E7
:1015D0001381824B93E8030086E80300304601F054
:1015E00067FC002863D001F04FFD0446002860D15D
:1015F00003A800F0C5FABDF80E204BF622239A424C
:1016000053D100F0E7FF01F0D9FC01F03DFD0122CC
:1016100000211B20FFF772FC012200211C20FFF794
:101620006DFC002201211820FFF768FC0022012137
:101630001920FFF763FC002201211A20FFF75EFC4E
:101640004FF010232C43D3F80022122A03D1D3F8F1
:101650000432122B2FD0624B0122C3F80425D3F899
:101660000024002AFBD04FF010221221C2F80012F1
:10167000D3F80024002AFBD04FF010231222C3F825
:101680000422574BD3F80024002AFBD00022C3F8D1
:101690000425D3F80024002AFBD0FFF715FB02F045
:1016A0009FF900283FF46CAF6FE70824ABE70824EC
:1016B000ADE70024ABE7FEF7ADFE08B144F020042F
:1016C0004FF0E0234FF6FF125A61464AE02182F8BC
:1016D000231000229A61B8F1020F4FF007021A613D
:1016E00002D109A806F0A4F905F048FA3E4803F033
:1016F000A7FE00284CD04FF4807500220121212044
:10170000FFF7FCFB002201212420FFF7F7FB00225A
:1017100001212520FFF7F2FB012211462620FFF7C9
:10172000EDFB012211462220FFF7E8FB00221146C3
:101730002720FFF7E3FB012200212320FFF7DEFB38
:101740000122002120202C43FFF7D8FB02F0B8FB38
:1017500008B144F010043946244A254803F038F80B
:10176000014608BB0123224800934FF0FF3203F0EB
:10177000C4F81F4803F09AF81E4B1B6800215868F4
:101780000DF03CFA002C39D014F0060F0FD0FEE714
:10179000194803F0F7FE051E18BF4FF4807503F0DB
:1017A000BBFE0028A9D0A6E744F40074E4E714F4D3
:1017B0007C7F23D06FF0180420460EB0BDE8F08186
:1017C000040F8200B5138100C9038100DC3B0020B7
:1017D000E13B0020E43B0020EC3000200C0F8200B5
:1017E00000E0014000ED00E0540F8200ED0C8100AC
:1017F000280F820050330020300F8200012100208A
:10180000FFF7E2FD01210846FFF7DEFD012102207E
:10181000FFF7DAFD06F008FF06F032FF0A20FEF7B8
:1018200075FD324806F0B6FC0A20FEF76FFD03AAEC
:101830000DF10B012720FFF799FB9DF80C402B4879
:10184000002C4FD106F0C4FE2146284806F06AFD60
:101850000A20FEF75BFD2548012106F063FD0A2002
:10186000FEF754FD224900222720FEF733FE2149CE
:1018700002222320FEF72EFEFFF7F2FB1E49012075
:10188000FEF7E6FD0446002894D11C491C4D1D4F6F
:101890000120FEF7FDFD21462046FFF7ABFD314656
:1018A00012488DF8184006F015FD21462046FFF736
:1018B0008BFD45F001053B78002B7FF47DAF4FF0A9
:1018C000A043D3F810359B017FF576AF0E4B1B7804
:1018D000002B7FF471AF64264FF47A40A847013E95
:1018E000FAD1E8E706F0F2FDBCE700BF283100209E
:1018F000DD0F8100E91081006110810080C3C90102
:10190000200F8200B3470020E03B0020014B186805
:10191000704700BFF83B002070470000F0B5154C41
:10192000154E164F01460822002001254FF0300EBB
:101930004FF4A07C11F0010F14BF1123A023C4F8B1
:1019400040554008C4F84435C4F848E5C4F84CC5CF
:10195000357025603378002BFCD13B68002B18BF15
:1019600080230343D8B2531E13F0FF024FEA510104
:10197000E0D1F0BD00900040645200206852002089
:10198000104A4FF0A0431360202140F20162C3F8D7
:101990001427C3F808150C4B0022C3F810254FF488
:1019A0007022C3F804230322C3F80825074A82F8EB
:1019B00009134FF40071116040F60802C3F80022C9
:1019C000704700BF605200200090004000E100E03E
:1019D000174BD3F840213AB1164A12682021C2F8B9
:1019E0000C150022C3F84021D3F844213AB1114A22
:1019F00012682021C2F808150022C3F844210C4ABD
:101A0000D2F8483153B10B4B0B491B68D3F8103552
:101A1000C3F340130B600023C2F84831044BD3F8E2
:101A20004C2122B1054900220A70C3F84C217047AD
:101A30000090004060520020685200206452002054
:101A40000E4B0F4901224FF470700A60DA60C3F840
:101A50004025C3F844054FF48A60C3F848054FF4A5
:101A6000F060C3F84C05074802701A600378002B39
:101A7000FCD10868B0FA80F040097047009000403F
:101A8000685200206452002010B50446FFF746FF5C
:101A9000031B5842584110BDFF20FFF73FBFFFF71F
:101AA0006FBFF8B5074616460C4611B90025284603
:101AB000F8BDFFF7C5FF05460028F7D0CC20FFF79B
:101AC000E3FFF020FFF7E0FFF8B2FFF7DDFF0020B3
:101AD000FFF7DAFF2644B442E9D0FFF7DDFF04F850
:101AE000010BF8E71F2888BF00F01F0000F5E07227
:101AF0008CBF064B4FF0A043032143F82210012274
:101B000002FA00F0C3F80805704700BF0003005058
:101B10000749084808B5084B0B604FF000438B603D
:101B200000231A4602F0A8FCB0FA80F0400908BD74
:101B300040310020640F82001314151170B50D4D53
:101B400028460E4600F8016B11461A461C460CF05A
:101B500045FA0949049B8B600134BDF814300748ED
:101B60000D6000224C60CB6002F080FD003818BF91
:101B7000012070BD6C52002070530020640F820061
:101B800010B586B000238DF80F3004AA04938DF8A9
:101B900014300523CDE900230446084801230DF144
:101BA0000F029F210078FFF7C9FF9DF812302370C4
:101BB000BDF813305BBA638006B010BD80530020BF
:101BC0002DE9FF412A4E35780446002D4ED11620CE
:101BD000FFF788FF1720FFF785FF1120FFF782FF2F
:101BE000FFF796FF02463070C0B32B46CDE9005593
:101BF0002A46FF21FFF7A2FF1E4B1F884FF0C008A7
:101C000003AD00232F808DF80E300323CDE9005360
:101C100030788DF80B8001230DF10B020F21FFF7B7
:101C20008DFF9DF80E30DB07EBD42846FFF7A8FFA9
:101C3000BDF80E204BF622239A4213D19DF80C30AA
:101C4000EF2B0FD100F0C7F800F0C9F800F060FCEE
:101C5000BDF80E302380084B05221A70104604B0E0
:101C6000BDE8F081002323800622F7E70522F5E78F
:101C700080530020600F82005031002010B50A46CA
:101C80000C46014604480CF0A9F9044B1A88144488
:101C90001C800C2010BD00BF4E7600204C7600202A
:101CA00070B50F4D28460E4600F8016B11461A46D6
:101CB0001C460CF093F90B49049B8B600134BDF872
:101CC000143009484C6000220D60CB6002F0CEFC5D
:101CD000044618B9FFF720FE204670BD0120FCE73E
:101CE0008153002084540020640F82007FB50D4B87
:101CF0008DF80F001B88ADF8143000238DF81630D6
:101D000003230193084805AB00930DF10F02012353
:101D10000F210078FFF7C4FF9DF8160007B05DF8AB
:101D200004FB00BF6C0F820080530020002070472E
:101D30001FB5C0F38F12134B33F81230934206D005
:101D4000B2F5FB6F3CBF00F03F0000EB8310030CCB
:101D50008DF80C30030A8DF80D300023CDE90033E7
:101D60008DF80E0008480323007803AA1321FFF71B
:101D700097FFC020FFF7BAFFC307FAD4092005B0C8
:101D80005DF804FB94540020805300201FB500230D
:101D9000CDE900338DF80C0005488DF80D100223B5
:101DA00003AA1F210078FFF77BFF05B05DF804FB55
:101DB0008053002007B50023CDE9003304481A46BC
:101DC000FF210078FFF76CFF03B05DF804FB00BF54
:101DD0008053002070470021A020FFF7D7BF08B52F
:101DE000B020FFF783FF40F01800C1B2BDE8084003
:101DF000B020FFF7CBBF000008B54FF40072FF2101
:101E000004480CF0F9F8044B4FF0FF321A6005203B
:101E100008BD00BF4C7400204E7600202DE9F04331
:101E20000027C5B005460C4690463946FC2205A859
:101E30001E4603970DF1100904970CF0DDF82DB341
:101E400034B34046FFF774FF330A8DF80C30231D7E
:101E50009BB2CDE900930F488DF80E70032319460D
:101E600003AA00788DF80D60FFF71AFF224605A936
:101E700028460CF0B3F8C020FFF738FF10F0300F01
:101E80000CBF09200B2045B0BDE8F0830220FAE723
:101E90000320F8E78053002007B500238DF80730B2
:101EA00082014FF4006301210DF10700FFF7B6FF37
:101EB0009DF80700FF3818BF012003B05DF804FB50
:101EC0002DE9F04F334BC5B0002681461B88ADF895
:101ED0000C300D4617463146FC2205A80DF1100BBB
:101EE0008DF80E60CBF800600CF086F8B9F1000FA9
:101EF0004AD0002D4AD0B7F1805F49D8C7F30A0A0B
:101F0000CAF500640134AC424FEAD7208CBFACB2B2
:101F1000A4B2FFF70DFF4FF000038DF80E30FA2C3E
:101F200094BFA0464FF0FB084FEA1A238DF80C30FF
:101F300008F104039BB2CDE900B317488DF80DA05A
:101F400003231946B14403AA0078A4EB0804FFF761
:101F5000A7FEA4B2424605A948460CF03FF85FFA36
:101F600088F6C244A5EB08054744002CD7D1002DC4
:101F7000C4D1C020FFF7BAFE10F0300F0CBF09200B
:101F80000B2045B0BDE8F08F0220FAE70320F8E708
:101F90000120F6E76C0F820080530020B1F5007F2E
:101FA00070B50C4610D8094E3588B5F5007F0BD8B2
:101FB000C2F308030A46014605482C4418440CF0B5
:101FC0000DF834800C2070BD0020FCE74A7400201E
:101FD0004C740020042901D8FFF750BE0020704740
:101FE0002DE9F04F5E4BDFF88CB11B88A7B004469B
:101FF0000E467F22002106A8ADF810308DF8121091
:1020000005910BF0F9FFBBF80030002B00F0A28027
:10201000B4F5003F00F2A080042E00F29D80DFF8AE
:102020005891A309C4F38F1739F81350BD4204F037
:102030003F0805D0B7F5FB6F34BF08EB85143D466C
:102040003846FFF729FF78B12846FFF725FF58B13A
:10205000334622462946384600F026F910287DD11D
:1020600039F8154008EB84140025CDE900553D4FA3
:10207000B3B2039338782B462A460621FFF710FEA9
:102080007602B6B24FF0020A73191B12C5F5007240
:102090008DF81430344B8DF815507D2AA8BF7D2261
:1020A00059190DF116004FF000081FFA82F90BF0D4
:1020B00095FFCDE9008809F102034D445146387877
:1020C0009BB205AAADB2FFF7EBFDB5F5007F4FF06F
:1020D000840AD9D3254D2B88A3B108238DF8143059
:1020E000039B1B0103F604038DF81530204B1B687E
:1020F000CDF81630CDE900880623387805AA514678
:10210000FFF7CEFD230C8DF81030230A8DF8113027
:102110000023CDE9003304AA38788DF81240032358
:102120001021FFF7BDFDC020FFF7E0FD10F001001A
:10213000F9D1ABF8000028804FF400720A48FF2163
:102140000BF05AFF0A4B4FF0FF321A600C2027B0F9
:10215000BDE8F08F0320FAE70120F8E70D20F6E74D
:102160006C0F8200805300204C7400204C760020BD
:102170004E7600204A74002094540020F0B5414D62
:10218000414B2B6085B00024CDE900443F4B404ECD
:102190001B88ADF80C3022462346062130788DF896
:1021A0000E40FFF77DFDCDE9004401238DF80C3092
:1021B000F6238DF80D3030788DF80E40032303AAF6
:1021C000D821FFF76DFDC020FFF790FD10F0010151
:1021D000F9D1304C40F6DB7220460BF00DFF2B6836
:1021E00023702B682C491B0A63702B681B0CA3708F
:1021F0002B681B0EE3704FF47B62201D0BF0EEFE8C
:10220000264B04F6B47203F1240153F8040B42F890
:10221000040B8B42F9D1198811809B781D4E204FF9
:102220009370002500224FF400713046FFF7B6FE90
:10223000690A05F500753846ADB2FFF7D1FEB5F570
:10224000006F06F50076EDD1164E002504F500640A
:1022500000224FF400716019FFF7A0FEC5F346217C
:10226000304605F50075FFF7BBFEB5F5006FEFD101
:10227000084840F6DB72002105B0BDE8F0400BF0E5
:10228000BBBE00BF44640020EFBEADDE6C0F820019
:1022900080530020486400209454002023740020C0
:1022A00003F6010004F601002DE9F04F2DED028B3D
:1022B000904697B05E4A03938946019000231146E9
:1022C00012F8015B9CB295B904F2D9740122B8F1FD
:1022D000FF3FCA54A4B213D1019A564B500423F8BD
:1022E00012404FF40031013000F0A8F834E001331F
:1022F000272BE5D10F2017B0BDEC028BBDE8F08F86
:1023000060044FF40031013000F098F84FEA89136F
:1023100040F6DB72FF21484804930BF06DFE06ABDC
:102320004022FF2118460BF067FEA20108EE100ABA
:10233000A8EB891702925FFA85FA574510D8039BDC
:10234000002B40D1019A3B4B3B4823F8124000211F
:1023500040F6DB720BF050FEFFF710FF1020CAE7CB
:10236000049B354803EB0A06F2024FF40061FFF7C5
:10237000A7FD4FF40063324618EE100A4021FFF724
:102380004DFD029B9A442C4B0DF11C0B0026184668
:1023900000224FF400710593FFF700FE0421584618
:1023A000FFF76CFC710A504606F50076FFF718FE41
:1023B000B6B2059BB6F5006F03F500730BF1100B79
:1023C000E5D10135B7E7039B1B485E02FA0202EB39
:1023D00049423146FFF774FD4FF400634246402105
:1023E00006A8FFF71BFD029BDFF84C903B444FF023
:1023F00000081F46454600224FF4007109EB050016
:10240000FFF7CCFD06AB03EB081004210844FFF7EF
:1024100035FC690A05F500753846ADB2FFF7E0FDF9
:1024200008F10108AE421FFA88F8E4DC8AE700BF31
:102430002374002094540020486400202DE9F043C8
:10244000304B85B01B88ADF80C30013800238DF877
:102450000E3040EA0103C3F310030D46002B4FD1A9
:10246000430CB3F5FB6F4FEAD0261C4603D107207F
:1024700005B0BDE8F083244A32F813709F4205D0BE
:10248000B3F5FB6F3ABF7E04F60A1F462046FFF7FE
:1024900003FD28BB1D4F4FEA1648C6F30729002449
:1024A000002DE4D0CDE9004400231A4606213878F7
:1024B000FFF7F6FBCDE90044032338788DF80C8054
:1024C00003AAD8218DF80D908DF80E60FFF7E8FB78
:1024D000C020FFF70BFCC307FAD4A5F50035DFE7F2
:1024E0003846FFF7D9FC0028D4D0FF234FF0FF3245
:1024F00039462046FFF7D8FE1028B8D00820B7E7A5
:102500000120B5E76C0F8200945400208053002016
:10251000F8B5264C264A4FF400612046FFF7D0FC60
:102520004FF40061234A6018FFF7CAFC224B22686F
:102530001A601A68214B9A421CD121490023607904
:102540002279013302EB0022B3F5FB6F21F8022B55
:1025500004F10204F3D11B4B1B4A03F1240153F88D
:10256000040B42F8040B8B42F9D1198811809B7837
:102570009370F8BD124A002322F8023B0133B3F5F1
:10258000FB6FF9D1104D114C114E002720464FF42E
:10259000003104F50034FFF751FFB44205F8017B28
:1025A000F4D1BDE8F840FFF7E9BD00BF4864002062
:1025B0000018B00F0020B00F44640020EFBEADDE65
:1025C00094540020FC730020237400200100B20FFB
:1025D0000100001038B5084D01244FF400312046A9
:1025E000FFF72CFF072804D104F50034AC42F4D1E6
:1025F00038BD0820FCE700BF0100B00F10B586B061
:1026000000238DF80F3004AA04938DF814300523AD
:10261000CDE900230446084801230DF10F029F2154
:102620000078FFF73DFB9DF812302370BDF81330A2
:102630005BBA638006B010BD80530020014B187850
:10264000704700BF51310020012383814FF07B632D
:1026500003604FF4FB2383604FF400738380704763
:1026600073B500240E4D8DF807404FF40063A201AE
:1026700001210DF10700FFF7D1FB9DF80730FF2B7B
:10268000A6B207D035F81410FF234FF0FF323046C2
:10269000FFF70AFE0134B4F5FB6FE6D102B070BD5E
:1026A0009454002008B5054B40045B6B4FF4003197
:1026B00001309847C31F5842584108BD5476002046
:1026C000054B06491888064B09781A88054B02EB1A
:1026D0008010DB6B184700BFA4760020AA7600208C
:1026E000A87600205476002030B401F00304094994
:1026F000094D0C7009492D88098805EB8115084999
:1027000004EB85040D6C02EB442219462B4630BCC9
:10271000184700BFAA760020A8760020A4760020E3
:1027200054760020064B01F003011970054B1988FF
:10273000054B1A88054B02EB81129B6C042118474C
:10274000AA760020A4760020A876002054760020E7
:102750001C4BD3F8AC2010B552B1B3F8A82082427C
:1027600006D1B3F8AA208A4202D193F8B00010BD76
:10277000154AA3F8AA101080144AA3F8A8001180E3
:10278000012283F8B020C3F8AC20D3F898200021B0
:102790008AB114888442946811D14FF6FF7010807A
:1027A0004FF0FF30506041B9C3F89840D3F8901013
:1027B0009160C3F890200120D9E78C60F6E71146BC
:1027C0002246E5E7AC760020A4760020A87600201B
:1027D000084BB3F8C8309B00013B02289BB204D0E1
:1027E000834204D0013080B2704704207047032038
:1027F000704700BFAC760020C3682BB15A880B68C5
:1028000013440B60012070474368002BFAD18268A3
:102810000B68D26813440B60032070478908FFF7E8
:1028200097BF10B50C460021FFF7F8FF00222046A5
:102830001C231146FFF758FFBDE81040FFF740BFCB
:10284000094A01F0030110B40B01084C1188084A31
:10285000646C1288A44602EB81125DF8044B03F607
:1028600004030421604700BFA476002054760020B2
:10287000A876002030B4094C2588094C248804EB44
:10288000851501F00304074904EB85048D6B02EB09
:10289000442219462B4630BC184700BFA4760020BE
:1028A000A87600205476002007B54FF6FF739842B3
:1028B000ADF806000BD00321FFF7B0FF0DF10600C5
:1028C000022300220321FFF7D5FFBDF8060003B065
:1028D0005DF804FBC2884389013210B5C2800B4AFF
:1028E0000233B2F8C8209BB2B3EB820F0446438197
:1028F0000ADB40884FF6FF73984205D02080FFF72F
:10290000D3FF04236080638110BD00BFAC7600203C
:1029100030B50D4685B00446018028460321FFF7F7
:102920007DFF002201A80C230321FFF7A3FFBDF8C0
:102930000430638028460121FFF770FF01216846BB
:10294000FFF77EFFBDF8023023810023E3800423DC
:10295000638105B030BD00002DE9F043204B0546F2
:1029600088468FB0B3F8A41010461446FFF7D0FF86
:1029700061892088FFF752FF3823A17A0022684638
:10298000FFF778FF009E731C06D1C5F80090AE805B
:1029900028460FB0BDE8F083282204A940460CF079
:1029A000ACFA0746B8B961892088BDF804900131B6
:1029B00089B2FFF733FF6189013104233A46C9B276
:1029C0006846FFF757FF009B013303D12E60A5F83F
:1029D0000490DDE7B1462046FFF77CFFC8E700BF63
:1029E000AC76002010B50C460021FFF717FF00223F
:1029F00020461C23BDE810401146FFF73BBF0000F6
:102A000008B5084B0269D3F8A0309A4208D10649AC
:102A1000062214300BF0D2FA003818BF012008BD8E
:102A20000120FCE7AC760020750F82000F4AD2F837
:102A3000903013B9D2F8983008E01988814212D04A
:102A40009B68F6E7198881420DD09B68002BF9D16D
:102A5000D2F8943003E01A88824204D09B68002B9D
:102A6000F9D1184670470120704700BFAC760020AE
:102A700038B50C460546FFF7D9FF104BD3F8902028
:102A8000D3F894009168C3F89010D3F88C10158097
:102A900021445460C3F88C10B3F888100131A3F8B6
:102AA00088100021916030B101460C4689680029E8
:102AB000FBD1A2600246C3F8942038BDAC7600205A
:102AC0002DE9F043DFF8F480DFF8F490B8F8006007
:102AD000C6F5FA650735013689B0ADB2B6B2002445
:102AE000D9F890202346344612BBB8F8001040F2C3
:102AF000D772914200D10023A8F80030012009B01C
:102B0000BDE8F0839DF80030FF2B4CD0D9F8903011
:102B10004BB1012D07D1B8F8003023B100222E4669
:102B2000A8F800201D46013DADB2D9E70124DBE73E
:102B3000002DDAD02346002CF8D02046FFF776FF90
:102B4000661CB6B207460028CAD1194B1C80194B27
:102B500001A918802046FFF745FF68460121FFF7CD
:102B60006FFE01A8C9F8AC70FFF74AFF0028C9D072
:102B70004FF6FF73ADF80C304FF0FF330493D9F8E4
:102B8000A03005930C4B0197186806909B8802971C
:102B90002046ADF81C30FFF785FD0028AFD001A915
:102BA0002046FFF73EFE01992046FFF761FFADE7A3
:102BB000A4760020A87600206F0F8200787700208E
:102BC000AC7600202DE9F0471E4DB5F8883004465C
:102BD0002BB94FF6FF7323802046BDE8F087B5F888
:102BE000C4704FF000084FF6FF79002FF1D0D5F8F0
:102BF0009430B5F888609A68C5F89420013ED5F8FD
:102C00009820B6B2A5F88860C3F80880AAB111462A
:102C1000084689680029FBD18360C5F8982093E8AD
:102C20000700B3F800A084E807000EB9FFF748FFDB
:102C3000CA4504D0A4F800A0CEE71A46EDE7013F4C
:102C4000BFB2D2E7AC7600202DE9F0430E46C18832
:102C5000032987B00446154600F11C0750D10191A5
:102C600000F0B0F803A8FFF7ADFFBDF80C804FF6F9
:102C7000FF73984542D02289DDF810904448E368FC
:102C8000A0F8B880A5F1100C6244ADF80A2009F153
:102C90000102C0F8BC402262D0F89C200199A4F83F
:102CA0001C802B440132E360C0F89C20C4E9092356
:102CB000A088FFF7B3FD0199238900223846FFF76A
:102CC00013FD019925B122892B463046FFF70CFDF3
:102CD00002A80321FFF726FDFFF7F2FC2D4AA4F816
:102CE00004800023C4E902232268C4F81090012064
:102CF0002A44E080226007B0BDE8F0830020FAE7B4
:102D000003891344224AD2F8BC00A04201BF4FF607
:102D1000FF70A2F8B8000020C2F8BC009BB20222EB
:102D200001298DF80820ADF80A3006D16269626287
:102D30000C3B22692262ADF80A30A088FFF76EFDD5
:102D4000238923B1A17900223846FFF7CDFC2DB1AC
:102D50002289A1792B463046FFF7C6FC02A8A1794B
:102D6000FFF7E0FCFFF7ACFCE088FFF731FDE2681D
:102D7000E0802A440328E26022680CBF102300236D
:102D800023812A44C3F50073638122600120B2E7E6
:102D9000AC7600200C00F401002210B51146044668
:102DA000FFF752FF58B1064BD3F8BC30A34206D10F
:102DB0000022BDE8104011461846FFF745BF10BD80
:102DC000AC76002038B5074CB4F8B8304FF6FF7534
:102DD000AB4205D0D4F8BC00FFF7DEFFA4F8B85032
:102DE00038BD00BFAC7600202DE9F0438BB002AFB8
:102DF0000D461646ADF8180008974FF6FF780024E8
:102E0000BDF8180009940321FFF708FD224610239E
:102E100003213846FFF72EFD049B5A1C53425341B1
:102E2000314606A80793A8470128044606D0022881
:102E30003BD078BB20460BB0BDE8F0830DF1040910
:102E4000ADF81A00CDF82490BDF81A10BDF818009E
:102E5000FFF7E4FC9DF81A104846FFF7F1FC9DF8D7
:102E60000430FF2B03D1BDF80630434512D0314664
:102E700006A8A8470228DDD003280BD040B1BDF832
:102E80001A00032806D0FFF7A3FCADF81A00DBE711
:102E90000446CFE7079C44B9BDF80830BDF81820B8
:102EA0009A42C7D0ADF81830A9E70124C2E7000064
:102EB0002B4B37B500241C7303C847F66922C3F8AF
:102EC000A020284DC3F8AC404FF6FF72A3F8B820FD
:102ED000C3F8BC40C43383E803002B78ADF8064048
:102EE000012BD8B238D00DF10600FEF769FE052897
:102EF00034D1BDF806204BF622239A422ED11A4B2C
:102F00001A4A1A601A4A5A601A4A9A601A4ADA60C9
:102F10001A4A1A611A4A5A611A4A9A611A4ADA61B5
:102F20001A4A1A621A4A5A621A4A9A621A4ADA62A1
:102F30001A4A1A631A4A5A631A4A9A631A4ADA638D
:102F40001A4A1A641A4A5A641A4A9A641A4ADA6479
:102F5000FEF752FF0120287003B030BD2046FBE78A
:102F6000AC760020A67600205476002061268100F1
:102F7000D71D8100DF1D81008D1D8100B51D8100E1
:102F8000D51D810049268100FD258100F91D8100A4
:102F9000D5258100311D8100A92281003D268100B7
:102FA0003D248100C11E8100E11F81009D1F810021
:102FB0001D1E8100D51F81002D1D810030B52F4CB5
:102FC000237B012B04BF00232373D4F8C4308BB0C0
:102FD000002B50D000210846FFF7BAFB03A90020C0
:102FE000FFF700FD00252649C4F8AC50062208A8CA
:102FF0000AF0E4FF002838D0224B039518689B881C
:10300000ADF82430D4F8A030089007934FF6FF7342
:103010000024ADF8143020464FF0FF33069304949B
:10302000FFF740FBF8B1204603A9FFF7FAFB204663
:103030000121FFF7F3FB00244FF6FF732246ADF8A2
:1030400008300121082301A80194FFF74DFBADF8DA
:103050000640012401A821468DF80440FFF762FBD9
:10306000FFF72EFB20460BB030BD079B01330793C3
:10307000C4F8A030CAE74FF6FF70D9E7AC7600205D
:10308000750F82006F0F82002DE9F0473F4C207BC7
:1030900001288AB03CD00025C4E92A55C4E900556E
:1030A0004FF6FF723A4FDFF8F480A4F8C050A560E5
:1030B00084F8B050A4F8B820C4F8BC50A946AA4679
:1030C000AEB203A930463E80A8F800A0FFF78AFC04
:1030D00068460121FFF7B4FB03A8C4F8AC90FFF7E2
:1030E0008FFC30B99DF80030012B02D1BDF80230C1
:1030F00023B10135202DE3D14FF6FF76254BA4F8FF
:10310000A46000221A804FF6FF739E4203D1002074
:103110000AB0BDE8F08731466846FFF7F9FBBDF815
:103120000A10BDF80000FFF779FB9DF80A10102384
:10313000002203A8FFF79EFB03994B1C07D0A3684E
:103140006846994288BFA160FFF7C4FBE7E7002308
:10315000C4E925330D4AA4F8883018464FF6FF76A7
:10316000013305460A2BC2E9051502F1100016824B
:1031700002F10C02F4D1084BC4F89030FFF7A0FC28
:103180000028C4D001202073C2E700BFAC76002025
:10319000A47600207877002028770020A8760020E9
:1031A00030B589B00446084601910BF09EFE2728F1
:1031B000019902D9002009B030BD03A805AAFFF784
:1031C000CBFBBDF810004FF6FF739842F2D0039A84
:1031D0006261224600232360A080E080194942F802
:1031E000103FFFF701FE0028E4D0E0880121FFF73F
:1031F00015FB012102A8FFF723FBBDF80A5085B19A
:10320000114BA360BDF80A30104AA3810023A361CB
:103210001368A3B11A469B69002BFBD1946101206E
:10322000C9E7E0880121FFF7F9FA02A80121FFF7B9
:1032300007FB0120FFF7CCFA65812081E2E71460EB
:10324000EDE700BFF927810001000C00AC760020FB
:10325000084A1368834203D19B69136001207047B9
:103260001A469B691BB18342FAD19B699361002086
:10327000704700BFAC7600202DE9F04F4FF00008FA
:1032800089B004460F4616464FF00C09C2464FF06F
:10329000100B1EB9404609B0BDE8F08FA289002A84
:1032A0003BD12189E38803295AD11846CDE9002171
:1032B000FFF7B4FA1023DDE900210DEB0300FFF75F
:1032C000D9FABDF8105001212846FFF7A7FA009A55
:1032D0000C23012104A8FFF7CDFA6369069A9A42EC
:1032E000D8D1E580012103A8FFF7AAFABDF80E3076
:1032F000002B32D10120FFF76BFA2081C1B203A865
:10330000FFF79EFABDF80E30A3812389012B41D02F
:10331000032B14BF53465B466381A589B54228BF82
:103320003546002DB5D01FFA85FB2189E088FFF7CF
:1033300075FA6289217A5B463846FFF79BFA638902
:10334000A2895B4463812368A2EB0B022B44A8444F
:10335000761B2F44A281236099E701232381D1E7C3
:1033600008460093FFF734FA009B014605461846CD
:10337000FFF754FAE9B203A8FFF762FA9DF80C30A0
:10338000FF2B05D1BDF80E204FF6FF739A4281D076
:103390002581B7E7A4F80A90BFE72DE9F843044672
:1033A0000E461546002700F11C0915B3B4F80A8033
:1033B000A8450AD8424631462046FFF745FCC0B131
:1033C0004644A5EB08054744EFE720892A463146E5
:1033D00048440AF003FE6289ABB2D21A62812289A4
:1033E000134423812268E3682A442B442F44E3607A
:1033F00022603846BDE8F8832DE9F0477A4D2E7BF0
:10340000012E98B00446884604D00026304618B0F5
:10341000BDE8F08704AA02A8FFF79EFABDF80CA049
:103420004FF6FF734FF000099A45C4F8189046D044
:10343000029BA4F804A06361E680C4F80090A08811
:103440000321FFF7EBF91023002203210AA8FFF75D
:1034500011FA0C9B013323D14FF6FF77E188A08846
:10346000FFF7DCF901A8A179FFF7EAF99DF804302C
:10347000E088BDF80620FF2B1AD1BA4218D10328E4
:103480000CBF102300232381C3F500736381002345
:10349000C4F81C326B68002B40F09D806C60B5E76F
:1034A000BDF828300D9AA380236813442360C6E733
:1034B000236813442360FFF78BF9E080CEE7B5F86B
:1034C000C830BDF81A209B00023B9A423FD1FFF75B
:1034D00079FC07A8FFF776FBBDF81C70574594D020
:1034E000BDF810000321FFF799F9089BADF828708B
:1034F00001330B93D5F89C3001334A4603210AA8C7
:10350000C5F89C300C930C23FFF7EEF8FFF7D8F8C2
:1035100031463846FFF782F9D5F89C300A934A467F
:10352000082331460AA8FFF7DFF8BDF81830ADF8D8
:10353000286001339BB231460AA8ADF81830ADF8C7
:103540002A30FFF7EFF8FFF7BBF8ADF812704146ED
:103550000EA800270BF0C1FC8DF85F70FFF732FC5E
:1035600007A8FFF72FFBBDF81C904FF6FF73994596
:103570003FF44BAFAB68BDF81A10BDF81000A5F8CA
:10358000B8900133AB600A93089BC5F8BC4003F1C7
:103590000108D5F89C30ADF82C900133C5F89C306B
:1035A0000D93CDF83080FFF739F938239DF81A10C4
:1035B0003A460AA8FFF798F8FFF782F8AB6863610C
:1035C0000123E380094BA4F80490C4E90237C4F84E
:1035D000108027605BE71A46D3F81C32002BFAD123
:1035E000C2F81C4212E700BFAC7600200C00F401C8
:1035F0000A494B688342024604D1D3F81C324B601F
:10360000FFF7CABB1946D3F81C322BB19342F9D14C
:10361000D3F81C32C1F81C3200207047AC76002071
:103620004FF08053D3F83021082A03BFD3F8340178
:10363000B0FA80F0400900207047000008B54FF054
:1036400080430022C3F80C21C3F81021C3F83825A9
:103650004FF0805203F54043D2F80414C3F820150C
:10366000D2F80814C3F82415D2F80C14C3F828159E
:10367000D2F81014C3F82C15D2F81414C3F830156E
:10368000D2F81814C3F83415D2F81C14C3F8401536
:10369000D2F82014C3F84415D2F82414C3F84815FE
:1036A000D2F82814C3F84C15D2F82C14C3F85015CE
:1036B000D2F83014C3F85415D2F83414C3F8601596
:1036C000D2F83814C3F86415D2F83C14C3F868155E
:1036D000D2F84014C3F86C15D2F84424C3F870250E
:1036E000FFF79EFF18B11F4B1F4AC3F88C26FFF748
:1036F00097FF18B11D4BFB22C3F81825FFF790FF69
:1037000070B14FF080414FF08053D1F8E42ED3F8E0
:10371000583222F00F0203F00F031343C1F8E43EC6
:10372000FFF77EFF20B1124B4FF40072C3F8402622
:103730004FF08043D3F80024D20744BF6FF001025A
:10374000C3F800240B4AD2F8883043F47003C2F85F
:103750008830BFF34F8FBFF36F8F074B074A1A6054
:1037600008BD00BF005000404881030000F0004049
:103770000090024000ED00E0543100200090D003A2
:1037800042DF704743DF704744DF704738B5074C6E
:10379000051E04F1080318BF1C4623682BB11A68E4
:1037A00022605B6828469847F7E738BD8477002099
:1037B00020B9054B01225A70FFF7E8BF012802D15A
:1037C000014A9070F8E770477C77002020B9034BDE
:1037D00001225A70FFF7DABF704700BF7C770020E4
:1037E00038B50B4C237883B90A486360A360236122
:1037F000E36000F09DFA054603F074FB08B900F0A1
:10380000A3FA01232370284638BD8525FBE700BFB6
:103810007C770020B137810037B5184CA378054676
:1038200003F0FF029BB110B14368012098470023C9
:103830000DF107008DF8073003F0FCF9E3689DF8FF
:1038400007000133E36003F019FA03B030BD0DF156
:1038500007008DF8072003F0EDF925B12269134622
:103860003BB92A602561E368002BE7D100F084FAB8
:10387000E4E79D42F7D01B68F2E700BF7C770020A9
:1038800037B50B4C00230DF107008DF8073003F01E
:10389000D1F9E368013BE360E56815B900F079FA16
:1038A000A5709DF8070003F0E9F903B030BD00BF33
:1038B0007C770020012813B508D003281CD018B944
:1038C000114B0122C3F8802002B010BD0F4C002321
:1038D0000DF107008DF8073003F0ACF923780BB930
:1038E000FFF77EFFE3689DF807000133E3600123E3
:1038F000A37003F0C3F9E7E700F026FA02B0BDE8D1
:103900001040FFF7BDBF00BF00E100E07C77002062
:1039100008B503F0E7FA28B94FF08043D3F818044C
:10392000C0F3004008BD000037B51B4C6378054666
:1039300003F0FF029BB110B14368002098470023B9
:103940000DF107008DF8073003F074F963689DF8F6
:1039500007000133636003F091F903B030BD0DF14E
:1039600007008DF8072003F065F925B1A26813461A
:1039700053B92A60A5606368002BE7D103F0B2FA5F
:1039800030B1FFF7FDFEE1E79D42F4D01B68EFE7A1
:1039900000F008FADAE700BF7C77002073B50F4C1F
:1039A00000230DF107008DF8073003F043F9636839
:1039B000013B6360666836B903F094FA054640B18E
:1039C000FFF7E0FE66709DF8070003F057F902B0BC
:1039D00070BD00F0F3F96570F5E700BF7C7700205B
:1039E00007B503F07FFA48B101A8FFF7CDFE0198B3
:1039F000003818BF012003B05DF804FB4FF080438E
:103A0000D3F80C0400F00110A0F101135842584102
:103A1000F1E736DF70474DDF70474EDF70474FDF0D
:103A2000704750DF704710B50446FFF7F6FF40B906
:103A30002046FFF7F0FF20B92046BDE81040FFF711
:103A4000EEBF10BD012810B5044602D100F01EFCE7
:103A5000804700F021FC034668B10A2C07D00B2CEC
:103A600007D0092C07D10220BDE8104018470020DC
:103A7000FAE70120F8E710BD012813B5044603D08A
:103A800003281CD002B010BD00230DF107008DF8F3
:103A9000073003F0CFF800F0F9FB10B12046FFF734
:103AA000B8FF9DF8070003F0E9F800F0F5FB0028E7
:103AB000E8D0012002B0BDE81040FFF7B4BF0D4BC5
:103AC000C02283F800230122C3F880211A6000F08D
:103AD000DDFB20B14FF080430422C3F8042300F043
:103AE000DBFB0028CED04FF080434FF46072C3F868
:103AF0000423C7E700E100E038B50A4D2B780446FF
:103B000063B903F0EFF958B90748002C18BF2046F5
:103B100000F0C8FB08B901232B7038BD8520FCE7F5
:103B20000820FAE7907700207B0F820013B500246D
:103B30000DF107008DF8074003F07CF803F0D2F98F
:103B400058B12046FFF76FFF9DF8070003F096F885
:103B500002B0BDE8104000F0DDBB00F0D4FBF3E79D
:103B60001FB50190FFF7E2FF019800F0BFFB03F0E3
:103B7000B9F90446A0B10120FFF755FF044660B92A
:103B800003A8FFF74EFF044638B9039BDB0704D5B3
:103B900000F082FB034620469847204604B010BD43
:103BA00000F0AAFBF9E70023435082B04358019389
:103BB000019B02B070470000F0B5204B4579204FC3
:103BC00043F8252005EB45036E00FB5CA3BB90F991
:103BD000043002798C78002BA8BF03F1604C4FEAC7
:103BE0005313BCBF02F00F0EDFF858C04FEA441465
:103BF000A8BF0CF5614C4FEA8303E4B203F16043C4
:103C0000B4BF0CF80E408CF8004303F56143012467
:103C100002F01F0204FA02F2C3F880211A6003685E
:103C20000A88C3F8082535447B190A795A707C55EF
:103C3000CA789A700020F0BD0820FCE79477002035
:103C40009177002014ED00E0036801221A604379A7
:103C5000024A03EB43030221D154704791770020BD
:103C6000024610B500680C464FF48271FFF79BFFC7
:103C700013680222C3F844230CB1C3F8042310BD17
:103C80002DE9F041224E234FDFF88C8000244FF4C1
:103C90008035D7F80433A6F580412B4289B20CD089
:103CA000336853B1C7F848533846C7F80853FFF78D
:103CB0007AFFD8F80030E0B298470134042C4FEA7C
:103CC000450506F10406E4D11248D0F80433DA07BA
:103CD0000AD5D0F800313BB14FF48071FFF763FF94
:103CE0000D4B20461B6898470A48D0F804339B07C1
:103CF0000CD5D0F804314BB14FF48271FFF753FF6C
:103D0000054BBDE8F0411B6805201847BDE8F08170
:103D100040410240004002409477002000F1804082
:103D2000002382B0036003680193019B02B07047D7
:103D3000044A137923B90121106091801846704715
:103D40008520704798770020094B1A68D20706D45F
:103D5000C02283F800230122C3F880211A604FF0AB
:103D600080420123C2F81835024A1370704700BF21
:103D700000E100E0A077002008B54FF48270FFF763
:103D8000CDFF4FF080430222C3F8042301229A6042
:103D900008BD4FF080430122DA60D3F81824D20323
:103DA000FBD4704708B54FF48070FFF7B7FF4FF0B2
:103DB00080430122C3F804231A6008BD4FF08042FB
:103DC00001235360D2F80C3403F00113B3F1011F47
:103DD000F8D0024B00225A71704700BF987700203C
:103DE0004FF0804110B5D1F8003163B14FF48070CD
:103DF000FFF794FF0D4B58790122C1F8082310B941
:103E00005A711B6898474FF08042D2F8043163B171
:103E10004FF48270FFF782FF0223C2F80833034B8E
:103E2000BDE810401B680120184710BD987700209E
:103E300000F1804000F5C040002382B003600368B9
:103E40000193019B02B0704703681F2B83BF03F0EF
:103E50001F03036001484FF0A0407047000300506B
:103E600007B5019001A8FFF7EFFF019B00EB83006E
:103E7000D0F8003723F44033C0F80037D0F80037CB
:103E800043EA0141C0F8001703B05DF804FBC20823
:103E9000012300F0070003FA00F08B5C18438854FC
:103EA00070470000054B4FF0FF32072843F82020F1
:103EB00084BFC01880F85820704700BFA477002046
:103EC00038B5154D95F86A4024BB3022FF21A8185B
:103ED0000AF092F8E0B20134FFF7E4FF0C2CF9D1BC
:103EE0000E4B00226A669A800D4BC02183F80613A0
:103EF0004021C3F880114FF4BE701960FFF798FF9E
:103F0000084B4FF00041C3F80413012385F86A30D1
:103F1000104638BD0820FCE7A47700200878002070
:103F200000E100E0006000402DE9F341DFF8F4809B
:103F300008EB0003054693F93030002B0F466CDA8E
:103F40008B78C3F34003002B0BBF082400240C2103
:103F500008218C4203D1042002B0BDE8F08158F85A
:103F60002400013041D108EB050166B248F8242055
:103F700081F830601BB908EB040383F85850BB7814
:103F80005A0712D4D90732D501A80195FFF75CFF73
:103F9000019B00EB8300D0F8003723F00203C0F848
:103FA00000371F492846FFF772FFBB783A7813F0B5
:103FB000020328D0A40004F1804404F5C0442D027B
:103FC000D4F8103523F44F3323F44073C4F810357C
:103FD0001204D4F8103505F47C5502F44032154330
:103FE0001D43C4F810550020B6E70134B1E701A81D
:103FF0007A780195FFF728FF019B03F5E0739200A3
:1040000040F82320CDE7083E48FA86F898F860503B
:1040100045EA821288F86020E5E708209CE700BFA7
:1040200008780020A477002073B5244D2E1804468C
:1040300096F93020072A1DDD083A45FA82F595F8F1
:1040400060309B09032B10D1019001A8FFF7FCFE03
:10405000019BD0F81015D94001F001010231204632
:1040600002B0BDE87040FFF7FBBE012B0CBF022180
:104070000321F4E7D3B2072B1DD8930003F180434B
:1040800003F5C043D3F8100540F00100C3F8100554
:1040900002F1400040B2800080B2FFF7C9FE51B18A
:1040A00096F9303055F823302BB1012303FA02F290
:1040B000034BC3F8042302B070BD00BFA4770020F7
:1040C000006000402DE9F04F00248BB0CDE904449E
:1040D000654D4FF48072012102F1804303F5C04326
:1040E00090B21B68012B06D1D5F804330B4202D0E5
:1040F000FFF79EFE0C430432B2F5907F4FEA410178
:10410000EAD1594BD3F87C31012B0ED14FF4BE705C
:10411000FFF78EFE4FF0A04344F00044D3F8103573
:104120000493524BD3F810350593E3B2D3B1504FFB
:1041300001260025344210D0AB0003F1804303F583
:10414000C043D3F81005D3F8101557F8253023B124
:10415000C1F30141C0F3052098470135082D4FEA0E
:104160004606E7D1002C7BDA0023CDE906334FF079
:10417000FF33CDE90833DFF8F8A03E4B019300256B
:104180002F46019B13F9014B0193631C4FD0C4F3DD
:10419000C2060122E3B204F03F0B04F0070402FA66
:1041A00004F406F128020DEB020616F8081C214261
:1041B0003DD00AEB0B014FEA931991F930105AF8F0
:1041C0002180B8F1000F07D1B9F1030F2FD106A953
:1041D0005846FFF75CFE02E0B9F1030FF7D003A8E1
:1041E000CDF80CB0FFF730FE039901F5E07150F8FF
:1041F000211016F8180C2042C1F3014106D0022903
:1042000015D1B9F1030F0CD1494605E003290ED1B0
:10421000B9F1030F05D102215846FFF721FE013500
:10422000EDB2B8F1000F02D049465846C0470137F9
:10423000042FA6D1A5B14FF0A0430499D3F81025BF
:1042400003F540739142D3F8103502D10599994294
:1042500006D004920593069A079B089209938CE76F
:104260000BB0BDE8F08F00BF0060004000030050BD
:10427000A47700200478002000F180431A68002A07
:104280001BBF0022012000201A607047014B1868F4
:10429000704700BF10780020014B1868704700BFBE
:1042A000187800200F4A1378D3B903784FF0804173
:1042B000C3F34003C1F88035037803F00103C1F86C
:1042C0007835094B1968C90706D4C02183F8001353
:1042D0000121C3F880111960012313700020704779
:1042E000852070471C78002000E100E0014B026847
:1042F0001A607047187800204FF080434FF46072C6
:10430000C3F8042370474FF080434FF46072C3F842
:1043100008237047014B00221A607047187800206C
:104320004FF0804310B5D3F80443620707D54FF42C
:104330008470FFF7A1FF10B11E4B1B689847A306BE
:1043400008D54FF48A70FFF797FF18B11A4B002079
:104350001B689847600608D54FF48C70FFF78CFFF8
:1043600018B1154B01201B689847210608D54FF45A
:104370008E70FFF781FF18B1104B00201B68984723
:10438000E20508D54FF49070FFF776FF18B10B4B9C
:1043900001201B689847A3050AD54FF49270FFF7D8
:1043A0006BFF28B1054BBDE810401B680220184781
:1043B00010BD00BF1078002014780020187800206D
:1043C0001F2886BF054A00F01F004FF0A0420123BE
:1043D00003FA00F0C2F80C05704700BF000300505C
:1043E0001F2886BF054A00F01F004FF0A04201239E
:1043F00003FA00F0C2F80805704700BF0003005040
:10440000D0F8183107B5DBB10023C0F81831D0F867
:104410001831C87F0193FF28019B03D08B7F63B1C4
:10442000FFF7CEFF002308460B724B7750F8083B8E
:10443000496803B05DF804EB1847FFF7D1FFF1E7D7
:1044400003B05DF804FB000001490248FFF7D8BF44
:10445000207800200030004001490248FFF7D0BF1B
:10446000447800200030024001490248FFF7C8BFED
:104470006878002000F002402DE9F74F0679774D6B
:1044800001934FF0240909FB06F905EB090A93464D
:104490009AF81C2080460C46002A40F0DB80076812
:1044A0006F4A384652F8261000F0E0FD0146002819
:1044B00040F0D28045F809B0019BCAF80430237B54
:1044C0002078012B00F2B480FFF77AFF23781F2BAE
:1044D00086BF03F01F03634A4FF0A04203F5E07369
:1044E000012042F8230094F80190B9F1FF0F00F089
:1044F000A2804846FFF764FFB9F11F0F8BBF09F098
:104500001F034B46574A4FF0A04203F5E0730320C8
:1045100042F82300A378FF2B00F090801F2B8BBF65
:1045200003F01F021A464F484FF0A04002F5E07218
:104530004FF0040C40F822C09A46242202FB065297
:1045400082F82030E078D077FF2816D02379002B2E
:1045500077D0FFF735FFE3781F2B86BF03F01F03EB
:10456000404A4FF0A04203F5E073032042F82300D5
:10457000242303FB065322799A772378C7F808355A
:10458000A368C7F80C95C7F810A5C7F82435637B56
:10459000227B003B18BF0123022A55D0032A56D0A4
:1045A000012A01D143F00203C7F85435A379C7F8B3
:1045B000C03524237343EB5813B14022C7F80423BA
:1045C0000722C7F8002543B3D8F80020607942F3EA
:1045D0000733002BA8BF03F16044C2F307324FEA50
:1045E0005313BCBF02F00F071F4C4FEA4010A8BF87
:1045F00004F561444FEA8303C0B203F16043B4BFE2
:10460000E05584F8000303F5614302F01F02012026
:1046100000FA02F2C3F880211A60242303FB065536
:1046200000236B7701232B77084603B0BDE8F08F9A
:10463000FFF7D6FE4AE74FF0FF396BE74FF0FF3A3E
:104640007BE7FFF7CDFE86E743F00403ACE743F0DA
:104650000603A9E70821E7E71121E5E72078002014
:104660007C0F82000003005014ED00E02DE9F341BF
:104670000779424E24237B431446F2180D46517F9E
:104680008046002978D1F35823B114F0140F04BFE9
:104690000123537795E80F004FF0240C0CFB076CB7
:1046A0000CF10C0E8EE80F009CF81F00FF2804D0C0
:1046B0009CF81E30C3B1FFF793FE296821B101F0C9
:1046C0006043B3F1005F06D1AA6882B102F0604393
:1046D000B3F1005F0BD0242303FB0766002373773D
:1046E000102002B0BDE8F081FFF76AFEE5E7D8F8D8
:1046F00000306868C3F84415C3F84805E968C3F892
:1047000034250022C3F83815C3F81821D3F818212E
:104710000192019A14F0010218BF0122C3F850253A
:1047200014F0020218BF0122C3F8402522075CBF23
:1047300001221A6124227A43B25892B9D3F818217F
:10474000002AFBD0242303FB0766F07FFF2803D059
:10475000B47F1CB1FFF734FE0020C2E7FFF740FE34
:10476000FAE714F004004FF0400202D0C3F8082327
:10477000F2E7C3F80423B4E71120B2E72078002061
:104780002DE9F347002406460F46904600F5A07534
:104790004FF48039A246A00000F5A07398B22B68B0
:1047A0006BB1D6F8043309FA04F21A4207D0C5F8FF
:1047B00000A02B680193019BD7E900319847013491
:1047C000A04505F10405E6D102B0BDE8F087000080
:1047D000F7B50679334D0C2474432F193B7A002B1F
:1047E0005ED12A514A687A60447902681F46D8B27D
:1047F00084424CD842F30733CC78002BA8BF03F196
:104800006047C2F307304FEA5313BCBF00F00F0CF0
:10481000254F4FEA4414A8BF07F561474FEA8303C9
:10482000E4B203F16043B4BF07F80C4087F80043DB
:1048300003F56143012400F01F0004FA00F0C3F8FF
:1048400080011860D2F804054B7820F0030003F0D3
:1048500003030343C2F804358B78D2F8080503F04C
:10486000030320F003000343C2F808350B78D2F8A5
:10487000100503F00F0320F00F010B43C2F81035B1
:104880000C2303FB065500202C7203B0F0BD9800EA
:1048900000F5A07001331750105801900198A6E759
:1048A0000820F2E78C78002014ED00E00368012274
:1048B0001A600279034B0C2101FB023302221A72A7
:1048C000704700BF8C78002037B54FF48034006803
:1048D0008C407BB101F150039B000025C550C358AB
:1048E0000193019BC0F8044301F5A87140F8212011
:1048F00003B030BDC0F80843F6E770B4046840F276
:104900000116D4F800528E4025EA0605C4F800527C
:10491000D4F800522B43C4F800329DF80C3070BC20
:10492000FFF7D2BF024903480422FFF729BF00BFA7
:104930008C78002000A00040024903480622FFF7BF
:104940001FBF00BF9878002000A001400249034823
:104950000622FFF715BF00BFA478002000B0014079
:104960000023435082B043580193019B02B070472B
:10497000F0B5D0F8243187B004460D469BB14FF412
:104980009271FFF7EDFFD0F8043163B9AB68C0F85E
:1049900008330223AB60AB68C0F804330123036221
:1049A000436107B0F0BDD4F80431002B34D04FF48C
:1049B0008271204605F10C07FFF7D2FF0FCF01AE41
:1049C0000FC63B68336095F82E3073B12B7B012BFB
:1049D0000CBFD4F83C25D4F84C250292022B0CBF16
:1049E000D4F83C35D4F84C3503934FF4B0712046DD
:1049F000FFF7B6FF4FF4AE71FFF7B2FF95F8303016
:104A000013B195F82E30CBB10023C4F80032AB605F
:104A10001F4BC4F8083311E04FF4A4712046FFF790
:104A20009FFF2B7BEBB905F10C070FCF01AE0FC633
:104A30003B68336095F83030002BE6D0D4F8C434AE
:104A4000C4F8C4349A071ED501238DF8003095F8B8
:104A500030300BB985F82F30D5E9003168469847DA
:104A60009FE74FF40073C4F8003240F20223AB60BA
:104A700003F1CE73C4F80833AB68C4F804330123E0
:104A8000A36023628DE713F0040318BF0223DCE761
:104A900002029C0101490248FFF76ABFB07800207A
:104AA0000030004002494FF04020FFF761BF00BFD7
:104AB000E47800202DE9F84F0679404D4FF0340A94
:104AC0000AFB06FA05EB0A049B4694F82D30804653
:104AD0000F469146002B6DD1394B006853F82610D4
:104AE00000F0C4FA002867D13A687B7B84F8323042
:104AF0001F2A8ABF02F01F0313463249A06098BFE5
:104B00004FF0A04103F5E07340F20C6C84F82F00E5
:104B100041F823C07B68C4F804B01F2B8CBF03F09E
:104B20001F01194684F8300001F5E07188BF254C5B
:104B300045F80A9098BF4FF0A04444F821C0D8F837
:104B40000040C4F80825C4F80C35BB68C4F8243507
:104B5000B9F1000F26D044F30733002B3A7BB4BFE2
:104B6000194903F16041C4F307344FEA5313B8BF46
:104B700004F00F074FEA4212A8BF01F561414FEA66
:104B80008303D2B203F16043B4BFCA5581F8002356
:104B900003F5614304F01F04012202FA04F4C3F890
:104BA00080411C60342303FB0655012385F82D301A
:104BB000BDE8F88F0820FBE71120F9E7B078002066
:104BC000880F82000003005014ED00E003680279B2
:104BD0000621C3F80015044B342101FB02330222E5
:104BE00083F82D20704700BFB078002001790B4B6F
:104BF0000268342000FB0133094900209860C2F8A4
:104C00000813D2F8001221F4BC51C2F80012C2F805
:104C10000005012283F82D20704700BFB0780020E6
:104C200002029C0170B50679204D3423734304467B
:104C3000EB5863B1026842F3073301215B09C2F309
:104C4000043201FA02F22033194941F823202046A8
:104C5000FFF7CCFF206800F033FA342303FB065340
:104C600093F83230DBB92268D2F808351F2B86BFA3
:104C700003F01F030F484FF0A04003F5E07302213B
:104C800040F82310D2F80C351F2B86BF03F01F030A
:104C9000084A4FF0A04203F5E07342F82310342392
:104CA00003FB0655002385F82D3070BDB078002039
:104CB00000E100E0000300500279034B342101FBC6
:104CC000023393F82F007047B07800202DE9F843A5
:104CD000CB6803F06043B3F1005F0D46904603D00C
:104CE00010263046BDE8F88390F80490924F04688F
:104CF000924BC4F80833342606FB097696F82F3019
:104D000023B1B368C4F804331126EAE712F0140F94
:104D10000CBF0123002386F82F308E46BEE80F001B
:104D200006F10C0CACE80F00DEF80030CCF80030D7
:104D3000C8F3001386F830306B78C4F888354FF428
:104D400082712046FFF70CFE4FF49271FFF708FEC8
:104D500018F0010318BF0123C4F8503518F00203FE
:104D600018BF0123C4F840352B78032B00F2C28012
:104D7000DFE803F084AA68022B6903F06043B3F113
:104D8000005FADD14FF48073C4F80032EA686B68FD
:104D9000C4F844254FF4A871C4F84835FFF7E0FD86
:104DA0004FF4B071FFF7DCFD4FF4A471FFF7D8FDAD
:104DB00001232362A360D4F85031002BFBD04FF4C1
:104DC000A8712046FFF7CCFDAB682A69C4F84425DA
:104DD000C4F848355A4A342303FB09739A604FF4E8
:104DE00082710823002618F0080F04D12A78032ABC
:104DF0001CBF0122E250342303FB09F3FA18FB58CD
:104E0000002B7CD1012221440B68002B00F0848010
:104E10003422D4F8C434C4F8C43402FB0977002225
:104E200087F82F20002B3FF45CAF13F0020F48F2FD
:104E3000012608BF032613F0040F48F2022318BF0F
:104E40001E464EE76B68EA68C4F84425C4F8483546
:104E50002B6903F06042B2F1005F7FF441AFAA68B2
:104E6000C4F834354FF48453C4F83825C4F80032FC
:104E7000342303FB097340F20222AFE76B68EA6850
:104E8000C4F8442518F0200FC4F848354FF0340317
:104E90000ED04FF4807203FB0973C4F80022284A35
:104EA0009A604FF4A471FFF75BFD0123236298E73A
:104EB0004FF4007203FB0973C4F8002240F202228F
:104EC0009A604FF48271F0E76B68EA68C4F83425A1
:104ED000C4F838354FF48053C4F80032342303FB50
:104EE000097340F202229A60012323624FF4827117
:104EF000002377E74FF482710823072673E718F041
:104F0000040F1CBF4FF400739360342303FB097735
:104F1000BB68C4F80433E4E6D4F82431002B3FF432
:104F200073AF4FF492712046FFF71AFD22624FF4DF
:104F30008271626167E700BFB078002002029C01C5
:104F400000020400F0B53F4B3F4CD3F8142185B06C
:104F50008AB10022C3F81421D3F814310093009BC6
:104F6000637943F0080303F01202122A637104BF4D
:104F700043F020036371334BD3F804218AB100223C
:104F8000C3F80421D3F804310193019B637943F002
:104F9000040303F01102112A637104BF43F02003DC
:104FA0006371284BD3F80821BAB10025C3F8085122
:104FB000D3F808210292029A24480422C3F8082355
:104FC0002946C3F800552368984723682048294696
:104FD00098470123237105B0F0BD637903F00F02F8
:104FE0000F2A08D0D80701D4190704D46279920790
:104FF000F1D45B07EFD56279276802F0F30312F072
:1050000020020BD023F0300343F010036371012121
:1050100000203B4605B0BDE8F04018470B4D95E831
:10502000030002AE86E8030015E9030043F0100315
:1050300085E80300C4E90222637101213046B847C4
:10504000C9E700BF005002401879002028790020ED
:1050500020790020014B1B68184700BF30790020E1
:10506000014B1B68184700BF38790020114B98424C
:1050700073B50D4606D0A3F58053984217D0002093
:1050800002B070BD0C4C00230DF107008DF8073005
:1050900001F0D0FD267916B90123256023719DF812
:1050A000070001F0EBFD002EE9D01120E8E7034CEA
:1050B000E9E700BF00300040307900203879002057
:1050C000074B984204D0A3F58053984205D070470F
:1050D000044B00221A601A717047034BF9E700BFB6
:1050E00000300040307900203879002000F1804005
:1050F00000F5E040002382B0036003680193019B48
:1051000002B07047F0B5524B524CD3F8043185B021
:10511000002B3DD094F82E204FF48270FFF7E6FF6D
:105120002AB394F82F3013BB494AD2F80031002B30
:1051300032D04FF48070FFF7D9FF638B94F82D00C5
:10514000834250D921891B1A9BB289B26383CB1A3F
:10515000616801EB4303C2F82C36C2F830064FF405
:105160008270FFF7C3FF3A4B01225A6014E0636874
:1051700002932389ADF80C30E36800218DF8041008
:1051800033BB2374236801A89847002384F82F3089
:1051900094F82E30002BC7D12D4BD3F810315BB1D2
:1051A0004FF48870FFF7A2FF0023237402238DF8C9
:1051B000043001A823689847254BD3F81431EBB18C
:1051C0004FF48A70FFF792FF0023237405B0F0BDFF
:1051D000208B608363602081E160002AD2D11C4B68
:1051E00001221A60CEE7BAD1E368012184F82F10BA
:1051F00013B100216183AEE76383B0E766694FF0C6
:1052000000470125002EE1D0B6FA86F227FA02F314
:105210004632920026EA030602F1804303F5E0439A
:105220001B68002BEED01046A2F58C72FFF75EFFD4
:10523000D30882F00402C2F380028DF808308DF8A2
:10524000045023688DF8092001A89847DAE700BFC9
:10525000007000404079002043681B681847000038
:10526000024B5B6803B11847704700BF707900209C
:10527000020600F00F034CBF02480348DB0018444D
:10528000704700BF7C790020C479002008B5FFF783
:10529000EFFF016009B14B681968416008BD00006B
:1052A0000378052B0BD1074AD2F88434D2F8802436
:1052B000D2B222B9044ADBB2052B08BF1046034B19
:1052C0001B68184700700240A80F82007079002008
:1052D000012805D0022805D030B90448FFF7E0BF07
:1052E0000348FBE70348F9E7704700BFA40F8200BB
:1052F000A00F82009C0F8200FFF7D2BF0148FFF78A
:10530000CFBF00BFAC0F8200024B0146D3E90002C1
:10531000104700BFC479002038B5831EDBB2062BCE
:1053200098BF1A4A1A4D98BFD25C2B78A3F102039A
:10533000DBB288BF0022062B9ABF1449CB5C002346
:105340009342044603D0B2B11248FEF7EDFA022CA4
:1053500014D0A4F10800424242412B78022B0FD016
:10536000A3F108014B424B41934202D052B104F0E9
:10537000FBFE2C7038BDFEF711FBE8E70122ECE7DD
:105380000123F1E704F0E6FEF3E700BF900F82008F
:10539000157A0020583100202DE9F04F87B0002603
:1053A0000546884691461F4602966B6800225C6857
:1053B0002946012302A8A047044638B98DF8060003
:1053C00004908246564503D8052028E00136ECE7D4
:1053D0006B680DF10602D3F804B02946012304A836
:1053E000D8476B680DF10702D3F804B029460123B2
:1053F00004A8D8479DF8073043459DF8063013D1DF
:105400004C450FD1109A13603B7087F801806A6891
:10541000023B54682946BA1C04A8A047002007B0E4
:10542000BDE8F08F0134E4B26A68023BD2F804B000
:105430002946002204A8D8479DF806309A44C1E7BF
:105440002DE9F74305462B4804F0A4FE0446002846
:105450004CD1294B1870294B1860294B0146186014
:105460004822284808F0C8FD27484822214608F06D
:10547000C3FD264B95B9264A1D72C3E900250020BD
:10548000FEF73AFB18B1852801D001F00DFC214F41
:10549000002697F8089007F1090814E095E807003E
:1054A00083E807000028EAD1194A1A60E7E7A378E1
:1054B00023443946985CFFF7E9FE01356378EAB288
:1054C0009342F4D80136F4B2A14504D904EB440464
:1054D00044440025F2E70B230E488DF8043001A95F
:1054E000FFF7BAFE044608B104F014FD204603B0ED
:1054F000BDE8F083F9528100157A00200C7A002073
:10550000107A00207C790020C47900207079002076
:1055100041588100C80F820010B504F0D7FD10B9C2
:105520000823184610BD04F0D9FD04460028F7D121
:105530000448FEF715FB03460028F2D001F0B4FB47
:105540002346EEE7980F820004F0F4BC05F0DCB9C6
:105550004FF08043D3F83824920702D50348FFF771
:105560009FBED3F83824D107F4D47047B10F82001E
:1055700007B5822301A88DF80430FFF791FE03B030
:105580005DF804FB2DE9F74300F1090190F808905C
:10559000054600270E46FBB24B452AD291F8018002
:1055A0000024E3B298450AD98B780A190134D05CFB
:1055B000FFF75EFE0368002BF3D0112028E00137CF
:1055C0000331E8E7A27823442946985CFFF75EFEA2
:1055D00001376278FBB29A42F4D808F101082B7ABD
:1055E0005FFA88F4A34216D904EB4404344400273C
:1055F000EFE74FF00008F2E713681A68002AFBD1C2
:105600001D6001A90B2328468DF80430FFF724FE06
:1056100003B0BDE8F083014BEFE700BF0C7A002038
:10562000024B1878003818BF01207047147A002008
:10563000030710B5044604D404F0D8FE204605F054
:1056400061FA2046BDE8104005F006BA05F0D2B96F
:10565000014B1868704700BF0C7A0020F0B50A4B68
:105660000246186878B1057A0023861DDCB2A5428F
:1056700001D80368F5E7013303EB4307F75D974271
:10568000F4D101B10C70F0BD0C7A00201146FFF787
:10569000E3BD08B500F00F03082B07D8FFF7E8FDBE
:1056A000006818B1BDE80840FFF7D6BD102008BD5E
:1056B00038B5054B05461C6804B938BD2946204657
:1056C000FFF7CAFD2368F6E70C7A002038B5074BD0
:1056D00005461C680CB9062038BD29462046FFF750
:1056E000BBFD0628F8D12368F3E700BF0C7A002041
:1056F00013B50446019104F097FD50B1064B1B7899
:10570000022B06D10199204602B0BDE8104004F0FA
:105710009BBD082002B010BD157A002013B50446C9
:10572000019104F081FD50B1064B1B78022B06D18C
:105730000199204602B0BDE8104004F0FFBD0820EA
:1057400002B010BD157A0020F8B543689B68054685
:105750000C46164613B92EB1072002E098470628DA
:10576000F9D0F8BD2B7AA34213D9093504EB4404D0
:105770002C446778F3B29F4201D80020F1E76278A9
:105780009A4208D9A219A378D05CFFF751FF0136DD
:10579000F0E77378FFDE00231B78FBE74368DB68E4
:1057A00070B505460C4603B198472B7AA34213D92E
:1057B000093504EB44042C4400256678EBB29E4284
:1057C00000D870BD62789A4209D96219A378D05C7A
:1057D00005F010F90135F1E700235B78FFDE0023C7
:1057E0001B78FBE743681B6903B1184718467047ED
:1057F00070B5084B1C6804B970BD267A0025E9B263
:105800008E4201D82368F5E700222046FFF79CFF6F
:105810000135F4E70C7A002070B5084B1C6804B918
:1058200070BD267A0025E9B28E4201D82368F5E7DB
:105830002046FFF7B3FF0135F5E700BF0C7A0020E3
:1058400038B503780F2B044610D9A3F1800283F0FA
:105850008003052B00D938BD052AFCD8DFE812F0FB
:1058600067002C00490073007E00E0000F2BF2D887
:1058700001A252F823F000BF7F598100AF59810087
:105880000F5A8100D3598100F1598100215A8100BA
:10589000335A8100575881005D5A8100615A810056
:1058A000655A810057588100575881005758810028
:1058B000575881002B5A81006B48FFF725FD6A4835
:1058C000FFF7F6FE0D20FFF7CBFCFFF7A5FF00F07A
:1058D000D0FE664B1B6853B9654B187A00F0010087
:1058E00004F0C8FB0120BDE83840FFF715BD0120DA
:1058F000F4E7FFF791FF04F0EBFF0020FFF70CFD4A
:105900005C48FFF7D5FE5B48FFF7FEFC0E20FFF773
:10591000A7FC594B1B78023BDBB2062B9BD8574A9E
:10592000D35C002B97D0BDE83840FEF737B8524B18
:105930001B78062B05D003F0FD03052B8BD102202D
:10594000D1E70820CFE74C4B1B78032B83D105F020
:1059500013F800283FF47FAF0420C4E7464B1B78C0
:10596000032B05D105F008F810B10420FFF7D4FC93
:1059700004F0BEFB00283FF46EAF0620B3E73E4BB9
:105980001B78032B01D0082B02D13D48FFF758FFAD
:105990000020FFF765FC354B1D68002D3FF45BAF21
:1059A00028462146FFF758FC2B685D68F5E7FFF7AE
:1059B00033FF00F055FE0220FFF7AEFC0120FFF799
:1059C0004FFC2046FFF7A0FC2046BDE83840FFF71B
:1059D0006FBE294B1B78082B06D10220FFF79CFCD9
:1059E00004F0CCFB0320EAE70520FFF795FCF9E77C
:1059F0000320FFF735FC2348FFF786FC2148FFF71B
:105A000057FE1D4B1B78062B99D107206BE703200F
:105A1000FFF782FC0220FFF723FC2046FFF748FE39
:105A20002046BDE83840FFF76FBC0F20FFF718FC99
:105A3000CAE78078FFF71CFC214643680068984756
:105A400000283FF408AFA07802073FF404AF030733
:105A50003FF501AFBDE8384004F0BABC0820E5E7E7
:105A60000920E3E70A20E1E7B00F8200107A002066
:105A700070790020AF0F8200157A0020900F82000D
:105A8000AE0F8200AD0F8200C36903B118477047A3
:105A900003680022C3E91E22C3E920221A845A6245
:105AA000DA6203F134025A677047CA699A4210B544
:105AB00043600CD38C690460086F18440867D01ADF
:105AC0001C44C86100388C6118BF012010BD01F171
:105AD000280202608B670020F8E758B90B681A7B30
